:100000000C94D4000C94F1000C94F1000C94F100C9
:100010000C94F1000C94F1000C94F1000C94F1009C
:100020000C94F1000C94F1000C94F1000C94F1008C
:100030000C94F1000C94F1000C94F1000C94F1007C
:100040000C94F1000C94F1000C94F1000C94F1006C
:100050000C94F10008000000BE922449123EABAAA5
:10006000AA2ABECDCCCC4C3E00000080BEABAAAAD2
:10007000AA3E00000000BF000000803F000000001A
:1000800000084178D3BB4387D1133D190E3CC3BD53
:100090004282AD2B3E68EC8276BED98FE1A93E4C00
:1000A00080EFFFBE01C4FF7F3F0000000000004062
:1000B0007A10F35A00A0724E18090010A5D4E80077
:1000C00000E87648170000E40B54020000CA9A3B8F
:1000D000000000E1F5050000809698000000404215
:1000E0000F000000A08601000000102700000000A3
:1000F000E803000000006400000000000A000000A7
:1001000000000100000000002C76D888DC674F0852
:1001100023DFC1DFAE59E1B1B796E5E3E453C63A58
:10012000E651997696E8E6C28426EB898C9B62EDCF
:10013000407C6FFCEFBC9C9F40F2BAA56FA5F49089
:10014000055A2AF75C936B6CF9676DC11BFCE0E400
:100150000D47FEF520E6B500D0ED902E0300943556
:1001600077050080841E080000204E0A000000C8A9
:100170000C333333330F986E12831141EF8D2114FA
:10018000893BE65516CFFEE6DB18D1844B381BF7CA
:100190007C1D901DA4BBE424203284725E22810069
:1001A000C9F124ECA1E53D2711241FBECFE5D8E01D
:1001B000DEBFCDBF10E0A0E6B0E0E8E8F4E102C0A9
:1001C00005900D92AE3DB107D9F721E0AEEDB0E05C
:1001D00001C01D92A639B207E1F70E94F6030C9404
:1001E000420A0C94000098B39F70282F207F922B16
:1001F00098BBC098C19A0000C19831E23A95F1F7D6
:10020000000028B32F7030E1839FC0011124822B9E
:1002100088BBC19A0000C19883EF91E00197F1F784
:1002200000C00000089598B39F70282F207F922B64
:1002300098BBC09AC19A0000C19831E23A95F1F793
:10024000000028B32F7030E1839FC0011124822B5E
:1002500088BBC19A0000C19883EF91E00197F1F744
:1002600000C0000008958FEF87BB8FE493EC0197E7
:10027000F1F700C0000083E30E94F30082E30E94D4
:10028000F30088E20E94F3008CE00E94F30081E01A
:100290000E94F30083EF91E00197F1F700C00000A6
:1002A00082E80E94F3000895CF93DF9300D0CDB78A
:1002B000DEB790E8998390EC9A83FE01E60FF11D7A
:1002C0009181890F0E94F3000F900F90DF91CF91E1
:1002D00008950F931F93CF93FC018081882359F0D9
:1002E0008F01C0E00E941301CF5FF801EC0FF11DF8
:1002F00080818111F7CFCF911F910F91089581E0F7
:100300000E94F30083EF91E00197F1F700C0000035
:10031000089510BC8CE089B98AB188618AB980B52A
:10032000866880BD08951092530110925201809109
:1003300099008823B1F08CB98FEB9DE50197F1F717
:1003400000C000008091520190915301019690935A
:10035000530180935201FC01E756FF4F80818111C8
:10036000EACF8DE08CB99FEF26E781E091502040E5
:100370008040E1F700C0000010925301109252013A
:1003800080918F008823B1F08CB98FEB9DE50197A8
:10039000F1F700C000008091520190915301019645
:1003A0009093530180935201FC01E157FF4F8081EC
:1003B0008111EACF8DE08CB99FEF26E781E0915063
:1003C00020408040E1F700C00000109253011092DD
:1003D0005201809186008823B1F08CB98FEB9DE5A6
:1003E0000197F1F700C000008091520190915301F4
:1003F00001969093530180935201FC01EA57FF4FFD
:1004000080818111EACF82E28CB98FEB9DE5019763
:10041000F1F700C000001092530110925201809138
:1004200078008823B1F08CB98FEB9DE50197F1F747
:1004300000C0000080915201909153010196909369
:10044000530180935201FC01E858FF4F80818111D4
:10045000EACF82E28CB98FEB9DE50197F1F700C0FE
:1004600000008DE08CB99FEF26E781E0915020409D
:100470008040E1F700C00000109253011092520139
:100480008091EE008823B1F08CB98FEB9DE5019748
:10049000F1F700C000008091520190915301019644
:1004A0009093530180935201FC01E251FF4F8081F0
:1004B0008111EACF8AE18CB98FEB9DE50197F1F7C5
:1004C00000C0000008951616170654F4FC01680FCA
:1004D000791F91919CB95D9BFECFE617F707C9F78D
:1004E000089564E070E084E790E00E9463022FE9E1
:1004F00086E891E0215080409040E1F700C0000084
:1005000064E170E080E690E00E9463022FE78AE1F8
:1005100096E0215080409040E1F700C0000008952F
:100520002FE78AE196E0215080409040E1F700C03B
:100530000000109293010895CF92DF92EF92FF9204
:10054000CF93DF9300D000D01F92CDB7DEB7682FD6
:10055000792FFE01319685E0DF011D928A95E9F73A
:1005600010929301A898A09A87E893E10197F1F778
:1005700000C00000A89AA0982FE107C000C0215039
:1005800021F484E08093930183C09899F7CF809100
:100590009301882341F07CC000C0215029F484E0FD
:1005A000809393010BC023E3989BF6CF07C000C054
:1005B000215029F484E0809393016AC023E3989941
:1005C000F6CF80919301882309F43DC061C000C03B
:1005D000215031F45093930145E031C0422F24E281
:1005E000989BF5CF20919301211126C09BE09A950D
:1005F000F1F700C0989B1BC0E1E0F0E0EC0FFD1F9D
:10060000E40FF11D2081D701C601032E04C0880F1D
:10061000991FAA1FBB1F0A94D2F7822B808307C0A1
:1006200000C0215029F450939301242F06C023E3E6
:100630009899F6CF242F01C0242F31507AF64F5FBE
:10064000453038F008C040E0C12CD12C7601C3946D
:1006500054E037E0C4CF80919301811119C0998192
:100660008A81980F8B81980F8C81890F9D818917C2
:1006700021F083E0809393010BC0DE011196E62FF9
:10068000F72FCE0105962D912193A817B907D9F719
:100690000F900F900F900F900F90DF91CF91FF90E0
:1006A000EF90DF90CF9008958F929F92AF92BF927C
:1006B000CF92DF92EF92FF920F931F93CF93DF932E
:1006C00000D000D0CDB7DEB78C017B0119821A8231
:1006D0001B821C82CE0101960E949C028091930194
:1006E000811173C06C818B81882384F48F7770E0D3
:1006F000782B072E000C880B990B0E94120620E025
:1007000030E040E251EC0E949E050EC070E0782B74
:10071000072E000C880B990B0E94120620E030E097
:1007200040E251E40E949E05F80160837183828358
:100730009383698170E0762F66278A81682B072E64
:10074000000C880B990B0E94120620E030E040E27A
:1007500051E40E949E054B015C01F70160837183A7
:1007600082839383F801C080D180E280F38020E00F
:1007700030E040E252ECC701B6010E94990588239F
:1007800054F020E030E040EA52E4C701B6010E9494
:10079000C206181624F482E08093930116C020E06C
:1007A00030E0A901C501B4010E949905882354F0E5
:1007B00020E030E048EC52E4C501B4010E94C206DA
:1007C00018161CF481E0809393010F900F900F9006
:1007D0000F90DF91CF911F910F91FF90EF90DF90DD
:1007E000CF90BF90AF909F908F900895CF93DF935D
:1007F000CDB7DEB7A6970FB6F894DEBF0FBECDBF5C
:100800000E9433010E947F0185E487B981E886B99F
:100810000E9489010E9490020F2EFEEEEF2EF0E062
:10082000FF2EF02D0F2EFEE42F2EF02D0F2EF5E6CD
:10083000DF2EF02D0F2EF4E6BF2EF02D0F2EFFE54C
:100840003F2EF02D0F2EF1E48F2EF02D0F2EF3E61C
:100850009F2EF02D0F2EF4E7CF2EF02D0F2EF9E660
:10086000AF2EF02D0E9433010E947F01BE016C5E0D
:100870007F4FCE0140960E9454032FE38DE093E01A
:10088000215080409040E1F700C0000060E080E02F
:100890000E9454018AEB90E00E94690160E08AE0C6
:1008A0000E9454016C897D898E899F898E010F5F1A
:1008B0001F4F22E042E00E94B907C8010E9469016F
:1008C00084EC90E00E94690120E030E046EC52E4C4
:1008D0006C897D898E899F890E94C206181664F0F2
:1008E00020E030E040E152E4688979898A899B8977
:1008F0000E94C2061816DCF40E947102EFE3FDE0CC
:1009000023E0E150F0402040E1F700C00000F70193
:100910002082D182D282B382348285829682C7823B
:10092000A0868FE681878EE682870E94930161E030
:1009300080E00E94540186EC90E00E946901688981
:1009400079898A899B898E010F5F1F4F22E042E0DF
:100950000E94B90761E086E00E945401C8010E942C
:1009600069018CEC90E00E946901FFE32DE083E0D7
:10097000F15020408040E1F700C000000E947F015C
:1009800060E081E00E9454018EEC90E00E946901D9
:10099000369A3699FECF64B175B180E090E00E943E
:1009A000100620E030E04AE754E40E94170720E0F8
:1009B00030E040E85AE30E9417070E94CF0620E08B
:1009C00030E040E551E40E9417072B013C018E0105
:1009D000085E1F4F23E045E00E94B90761E082E016
:1009E0000E945401C8010E9469018AED90E00E94B2
:1009F000690120E030E040EA52E4C301B2010E9404
:100A0000C2061816FCF49FE3EDE0F3E09150E040DD
:100A1000F040E1F700C0000083E5F70180838FE636
:100A2000818395E792839EE69383B48223E42583B2
:100A300086839783C08692E7918782878CE6838737
:100A40000E949301FFE927EF83E0F15020408040AE
:100A5000E1F700C0000006CF5058BB27AA270E942C
:100A600044050C9488060E947A0638F00E9481069C
:100A700020F039F49F3F19F426F40C9477060EF415
:100A8000E095E7FB0C947106E92F0E94990658F354
:100A9000BA17620773078407950720F079F4A6F563
:100AA0000C94BB060EF4E0950B2EBA2FA02D0B0173
:100AB000B90190010C01CA01A0011124FF27591BA3
:100AC00099F0593F50F4503E68F11A16F040A22FA9
:100AD000232F342F4427585FF3CF4695379527951A
:100AE000A795F0405395C9F77EF41F16BA0B620B19
:100AF000730B840BBAF09150A1F0FF0FBB1F661F60
:100B0000771F881FC2F70EC0BA0F621F731F841FA2
:100B100048F4879577956795B795F7959E3F08F0C8
:100B2000B0CF9395880F08F09927EE0F979587958A
:100B300008950E944D0608F481E008950E94B205D0
:100B40000C9488060E94810658F00E947A0640F0B4
:100B500029F45F3F29F00C94710651110C94BC06E6
:100B60000C9477060E94990668F39923B1F35523F4
:100B700091F3951B550BBB27AA27621773078407B0
:100B800038F09F5F5F4F220F331F441FAA1FA9F346
:100B900035D00E2E3AF0E0E832D091505040E69534
:100BA000001CCAF72BD0FE2F29D0660F771F881F95
:100BB000BB1F261737074807AB07B0E809F0BB0B88
:100BC000802DBF01FF2793585F4F3AF09E3F51059C
:100BD00078F00C9471060C94BC065F3FE4F3983EE9
:100BE000D4F3869577956795B795F7959F5FC9F785
:100BF000880F911D9695879597F90895E1E0660F06
:100C0000771F881FBB1F621773078407BA0720F07E
:100C1000621B730B840BBA0BEE1F88F7E0950895E7
:100C2000E89409C097FB3EF4909580957095619586
:100C30007F4F8F4F9F4F9923A9F0F92F96E9BB273C
:100C40009395F695879577956795B795F111F8CFB8
:100C5000FAF4BB0F11F460FF1BC06F5F7F4F8F4F23
:100C60009F4F16C0882311F096E911C0772321F019
:100C70009EE8872F762F05C0662371F096E8862FB1
:100C800070E060E02AF09A95660F771F881FDAF708
:100C9000880F9695879597F90895990F0008550F35
:100CA000AA0BE0E8FEEF16161706E807F907C0F0F2
:100CB00012161306E407F50798F0621B730B840BFA
:100CC000950B39F40A2661F0232B242B252B21F4D4
:100CD00008950A2609F4A140A6958FEF811D811D74
:100CE000089597F99F6780E870E060E008959FEFAE
:100CF00080EC089500240A941616170618060906B3
:100D0000089500240A941216130614060506089581
:100D1000092E0394000C11F4882352F0BB0F40F409
:100D2000BF2B11F460FF04C06F5F7F4F8F4F9F4F49
:100D3000089557FD9058440F551F59F05F3F71F0CB
:100D40004795880F97FB991F61F09F3F79F0879532
:100D50000895121613061406551FF2CF4695F1DFBB
:100D600008C0161617061806991FF1CF869571054B
:100D7000610508940895E894BB2766277727CB017F
:100D800097F908950E944D0608F48FEF089516F024
:100D90000C9484070C94770668940C9471060E9456
:100DA000A106A8F39923C1F3AEF3DF93CF931F936A
:100DB0000F93FF92C92FDD2788232AF02197660F12
:100DC000771F881FDAF720E030E040E85FEB9FE311
:100DD000883920F0803E38F021968F770E942D05CB
:100DE000E4E5F0E004C00E942D05E1E8F0E00E9497
:100DF00092078B01BE01EC01FB2E6F5771097595AF
:100E0000771F880B990B0E94120628E132E741E315
:100E10005FE30E942A07AF2D9801AE01FF900F916A
:100E20001F91CF91DF910E9444050C9488060E9487
:100E30002A070C9488060E947A0638F00E948106E0
:100E400020F0952311F00C9471060C947706112470
:100E50000C94BC060E94990670F3959FC1F3950F00
:100E600050E0551F629FF001729FBB27F00DB11D2E
:100E7000639FAA27F00DB11DAA1F649F6627B00DBE
:100E8000A11D661F829F2227B00DA11D621F739FA7
:100E9000B00DA11D621F839FA00D611D221F749FB5
:100EA0003327A00D611D231F849F600D211D822FFC
:100EB000762F6A2F11249F5750409AF0F1F0882323
:100EC0004AF0EE0FFF1FBB1F661F771F881F915050
:100ED0005040A9F79E3F510580F00C9471060C9488
:100EE000BC065F3FE4F3983ED4F38695779567950B
:100EF000B795F795E7959F5FC1F7FE2B880F911D7A
:100F00009695879597F908959F3F31F0915020F479
:100F1000879577956795B795880F911D96958795D5
:100F200097F90895DF93CF931F930F93FF92EF925A
:100F3000DF927B018C01689406C0DA2EEF010E94DB
:100F40002A07FE01E894A591259135914591559187
:100F5000A6F3EF010E944405FE019701A801DA946F
:100F600069F7DF90EF90FF900F911F91CF91DF9184
:100F70000895EF920F931F93CF93DF93E80147FDFE
:100F800002C034E001C034E1042E000C550B57FFC1
:100F900003C0519541955109E32E022F242FAE0134
:100FA0000E94D907CE01DF91CF911F910F91EF9051
:100FB0000895A9E0B0E0EFEDF7E00C94110A6A01A2
:100FC000122FB02E2BE3201720F0FF24F394F00E05
:100FD00002C02CE3F22E0F2D27E0AE014F5F5F4FD2
:100FE0000E943309BC014981842F8970813031F01E
:100FF000E1FC06C0E0FE06C090E205C09DE203C031
:101000009BE201C090E05E2D507143FF3CC0911106
:1010100002C083E001C084E0811718F4212F281B4F
:1010200001C020E051110BC0F601822F30E288236D
:1010300019F031938150FBCFC20ED11C20E09923CF
:1010400029F0D6019C93F60131966F01C6010396F3
:10105000E2FE0AC03EE4D6013C9341E411964C9373
:10106000119712963C9306C03EE6F601308341E6A6
:1010700041833283FC01322F40E2332309F442C022
:1010800041933150FACF42FF44C0911102C083E036
:1010900001C084E0811718F4212F281B01C020E033
:1010A00051110BC0F601822F30E2882319F03193E1
:1010B0008150FBCFC20ED11C20E0992329F0D6012C
:1010C0009C93F60131966F01C6010396E2FE0BC0B8
:1010D00039E4D6013C933EE411963C93119736E4F3
:1010E00012963C9307C039E6F60130833EE6318321
:1010F00036E63283FC01322F40E2332319F041936C
:101100003150FBCFFC01E20FF11D10828EEF9FEFFB
:10111000A6C021E030E0911102C020E030E01616B8
:1011200017061CF4FB01319602C0E1E0F0E02E0F3F
:101130003F1FBB2021F0EB2DF0E0319602C0E0E034
:10114000F0E02E0F3F1FE12FF0E02E173F071CF4B9
:10115000121B212F01C020E08E2D887159F4F60159
:10116000822F30E2882319F031938150FBCFC20ED9
:10117000D11C20E0992329F0D6019C93F6013196E9
:101180006F0151110BC0F601822F90E3882319F0F3
:1011900091938150FBCFC20ED11C20E00F2D060F82
:1011A0009A81342F307144FF03C0913309F4015008
:1011B000101624F4093018F008E001C001E0AB017A
:1011C00077FF02C040E050E0FB01E41BF50BA1E01B
:1011D000B0E0AC0FBD1FEA0FFB1F8EE2A82E4B0143
:1011E000801A91080B2D10E01195019511094F3FC0
:1011F000BFEF5B0721F4D601AC9211966D01641725
:1012000075072CF08416950614F4818101C080E3E3
:10121000415051093196D60111967D014017510771
:1012200024F0D6018C936701E2CF6417750739F477
:10123000963320F4953319F4311101C081E3F6019E
:101240008083F701822F90E2882319F091938150D7
:10125000FBCFF701E20FF11D108280E090E02996AC
:10126000ECE00C942D0A283008F027E03327DA014F
:10127000990F311D87FD916000966105710539F464
:1012800032602E5F3D9330E32A95E1F708959F3F4A
:1012900030F080387105610509F03C5F3C5F3D939B
:1012A000913008F08068911DDF93CF931F930F93C7
:1012B000FF92EF92192F987F9695E92F9695969524
:1012C000E90FFF27E85FFE4F99273327EE24FF241D
:1012D000A701E70105900894079428F4360FE71E4C
:1012E000F81E491F511D660F771F881F991F06940E
:1012F000A1F70590079428F4E70EF81E491F561F22
:10130000C11D770F881F991F661F0694A1F70590CE
:10131000079428F4F80E491F561FC71FD11D880FC8
:10132000991F661F771F0694A1F70590079420F474
:10133000490F561FC71FD81F990F661F771F881F99
:101340000694A9F784911095177041F0D695C7952A
:1013500057954795F794E7941A95C1F7EEEAF0E0B0
:1013600068941590159135916591959105907FE25E
:101370007395E118F10A430B560BC90BD009C0F75E
:10138000E10CF11E431F561FC91FD01D7EF47033A0
:1013900011F48A95E6CFE894015030F0080F0AF472
:1013A0000027021708F4202F2395022F7A3328F004
:1013B00079E37D932A95E9F710C07D932A9589F604
:1013C000069497956795379517951794E118F10A44
:1013D000430B560BC90BD00998F023957E9173955A
:1013E0007A3308F070E37C932013B8F77E91706134
:1013F0007D9330F0839571E37D9370E32A95E1F757
:101400001124EF90FF900F911F91CF91DF919927B9
:1014100087FD909508952F923F924F925F926F9221
:101420007F928F929F92AF92BF92CF92DF92EF9274
:10143000FF920F931F93CF93DF93CDB7DEB7CA1BF5
:10144000DB0B0FB6F894DEBF0FBECDBF09942A8820
:10145000398848885F846E847D848C849B84AA84C8
:10146000B984C884DF80EE80FD800C811B81AA8155
:10147000B981CE0FD11D0FB6F894DEBF0FBECDBF20
:08148000ED010895F894FFCF7F
:101488004154442B383830313535373333383436D6
:10149800383B0D0041540D0038383031353537337D
:1014A80033383436380041542B434D47533D0041BF
:1014B800542B434D47463D3100415400496E204D61
:1014C8006573736167652E2E2E0025730041542BBA
:1014D800434D47533D222573220048756D69646961
:1014E80074793D00250054656D703D004300536FCD
:0E14F800756E64204C6576656C0064420000E1
:00000001FF
